:100000000C9434000C943E000C943E000C943E0082
:100010000C943E000C943E000C943E000C943E0068
:100020000C943E000C943E000C943E000C943E0058
:100030000C943E000C943E000C943E000C943E0048
:100040000C943E000C943E000C943E000C943E0038
:100050000C943E000C943E000C943E000C943E0028
:100060000C943E000C943E0011241FBECFEFD8E04C
:10007000DEBFCDBF0E9470000C9475000C94000090
:1000800003EE0AB901E004B9089519B184E0212F03
:10009000282392E026959A95E9F7312F88E03823B6
:1000A00093E036959A95E9F780E1412F482394E053
:1000B00046959A95E9F750E060E070E0542F532B95
:1000C000622F6095642B91E069234095422B309517
:1000D000432B4923742F5623572355B9D6CFFFCF2F
:0E00E0000E9440000E944500FBCFF894FFCF25
:00000001FF
