:100000000C9434000C943E000C943E000C943E0082
:100010000C943E000C943E000C943E000C943E0068
:100020000C943E000C943E000C943E000C943E0058
:100030000C943E000C943E000C943E000C943E0048
:100040000C943E000C943E000C943E000C943E0038
:100050000C943E000C943E000C943E000C943E0028
:100060000C943E000C943E0011241FBECFEFD8E04C
:10007000DEBFCDBF0E9440000C946B000C940000CA
:1000800081E084B983EE8AB98CE18BB939B13071E2
:1000900029B1287099B181E0692F647092FF80E0E6
:1000A00055B141E0211101C040E0482B91E03111F0
:1000B00090E0892B842391E0311101C090E031E080
:1000C000611130E0392B91E0211190E0932B8923CD
:0A00D000852B85B9DBCFF894FFCF34
:00000001FF
